{
  "_format": "hh-sol-artifact-1",
  "contractName": "ChainRegistry",
  "sourceName": "contracts/registry/ChainRegistry.sol",
  "abi": [
    {
      "inputs": [],
      "stateMutability": "nonpayable",
      "type": "constructor"
    },
    {
      "anonymous": false,
      "inputs": [
        {
          "indexed": false,
          "internalType": "address",
          "name": "signer",
          "type": "address"
        },
        {
          "indexed": false,
          "internalType": "bool",
          "name": "hasRole",
          "type": "bool"
        }
      ],
      "name": "DebugHasRole",
      "type": "event"
    },
    {
      "anonymous": false,
      "inputs": [
        {
          "indexed": false,
          "internalType": "address",
          "name": "expectedSigner",
          "type": "address"
        },
        {
          "indexed": false,
          "internalType": "address",
          "name": "recoveredSigner",
          "type": "address"
        },
        {
          "indexed": false,
          "internalType": "bytes32",
          "name": "originalMessageHash",
          "type": "bytes32"
        },
        {
          "indexed": false,
          "internalType": "bytes32",
          "name": "prefixedHash",
          "type": "bytes32"
        },
        {
          "indexed": false,
          "internalType": "uint8",
          "name": "v",
          "type": "uint8"
        },
        {
          "indexed": false,
          "internalType": "bytes32",
          "name": "r",
          "type": "bytes32"
        },
        {
          "indexed": false,
          "internalType": "bytes32",
          "name": "s",
          "type": "bytes32"
        }
      ],
      "name": "DebugSignatureCheck",
      "type": "event"
    },
    {
      "anonymous": false,
      "inputs": [
        {
          "indexed": true,
          "internalType": "address",
          "name": "user",
          "type": "address"
        },
        {
          "indexed": false,
          "internalType": "enum ChainRegistry.IdentityStatus",
          "name": "status",
          "type": "uint8"
        }
      ],
      "name": "IdentityStatusUpdated",
      "type": "event"
    },
    {
      "anonymous": false,
      "inputs": [
        {
          "indexed": true,
          "internalType": "address",
          "name": "user",
          "type": "address"
        },
        {
          "indexed": false,
          "internalType": "bytes32",
          "name": "syncHash",
          "type": "bytes32"
        },
        {
          "indexed": false,
          "internalType": "uint256",
          "name": "timestamp",
          "type": "uint256"
        }
      ],
      "name": "IdentitySynced",
      "type": "event"
    },
    {
      "anonymous": false,
      "inputs": [
        {
          "indexed": true,
          "internalType": "address",
          "name": "user",
          "type": "address"
        },
        {
          "indexed": false,
          "internalType": "bytes32",
          "name": "verificationHash",
          "type": "bytes32"
        }
      ],
      "name": "IdentityVerified",
      "type": "event"
    },
    {
      "anonymous": false,
      "inputs": [
        {
          "indexed": false,
          "internalType": "address",
          "name": "account",
          "type": "address"
        }
      ],
      "name": "Paused",
      "type": "event"
    },
    {
      "anonymous": false,
      "inputs": [
        {
          "indexed": true,
          "internalType": "bytes32",
          "name": "role",
          "type": "bytes32"
        },
        {
          "indexed": true,
          "internalType": "bytes32",
          "name": "previousAdminRole",
          "type": "bytes32"
        },
        {
          "indexed": true,
          "internalType": "bytes32",
          "name": "newAdminRole",
          "type": "bytes32"
        }
      ],
      "name": "RoleAdminChanged",
      "type": "event"
    },
    {
      "anonymous": false,
      "inputs": [
        {
          "indexed": true,
          "internalType": "bytes32",
          "name": "role",
          "type": "bytes32"
        },
        {
          "indexed": true,
          "internalType": "address",
          "name": "account",
          "type": "address"
        },
        {
          "indexed": true,
          "internalType": "address",
          "name": "sender",
          "type": "address"
        }
      ],
      "name": "RoleGranted",
      "type": "event"
    },
    {
      "anonymous": false,
      "inputs": [
        {
          "indexed": true,
          "internalType": "bytes32",
          "name": "role",
          "type": "bytes32"
        },
        {
          "indexed": true,
          "internalType": "address",
          "name": "account",
          "type": "address"
        },
        {
          "indexed": true,
          "internalType": "address",
          "name": "sender",
          "type": "address"
        }
      ],
      "name": "RoleRevoked",
      "type": "event"
    },
    {
      "anonymous": false,
      "inputs": [
        {
          "indexed": false,
          "internalType": "address",
          "name": "account",
          "type": "address"
        }
      ],
      "name": "Unpaused",
      "type": "event"
    },
    {
      "inputs": [],
      "name": "ADMIN_ROLE",
      "outputs": [
        {
          "internalType": "bytes32",
          "name": "",
          "type": "bytes32"
        }
      ],
      "stateMutability": "view",
      "type": "function"
    },
    {
      "inputs": [],
      "name": "DEFAULT_ADMIN_ROLE",
      "outputs": [
        {
          "internalType": "bytes32",
          "name": "",
          "type": "bytes32"
        }
      ],
      "stateMutability": "view",
      "type": "function"
    },
    {
      "inputs": [],
      "name": "VERIFIER_ROLE",
      "outputs": [
        {
          "internalType": "bytes32",
          "name": "",
          "type": "bytes32"
        }
      ],
      "stateMutability": "view",
      "type": "function"
    },
    {
      "inputs": [
        {
          "internalType": "address",
          "name": "user",
          "type": "address"
        }
      ],
      "name": "getIdentityStatus",
      "outputs": [
        {
          "internalType": "bool",
          "name": "isValid",
          "type": "bool"
        },
        {
          "internalType": "enum ChainRegistry.IdentityStatus",
          "name": "status",
          "type": "uint8"
        },
        {
          "internalType": "uint256",
          "name": "validUntil",
          "type": "uint256"
        },
        {
          "internalType": "uint256",
          "name": "lastSync",
          "type": "uint256"
        }
      ],
      "stateMutability": "view",
      "type": "function"
    },
    {
      "inputs": [
        {
          "internalType": "bytes32",
          "name": "role",
          "type": "bytes32"
        }
      ],
      "name": "getRoleAdmin",
      "outputs": [
        {
          "internalType": "bytes32",
          "name": "",
          "type": "bytes32"
        }
      ],
      "stateMutability": "view",
      "type": "function"
    },
    {
      "inputs": [
        {
          "internalType": "bytes32",
          "name": "role",
          "type": "bytes32"
        },
        {
          "internalType": "address",
          "name": "account",
          "type": "address"
        }
      ],
      "name": "grantRole",
      "outputs": [],
      "stateMutability": "nonpayable",
      "type": "function"
    },
    {
      "inputs": [
        {
          "internalType": "bytes32",
          "name": "role",
          "type": "bytes32"
        },
        {
          "internalType": "address",
          "name": "account",
          "type": "address"
        }
      ],
      "name": "hasRole",
      "outputs": [
        {
          "internalType": "bool",
          "name": "",
          "type": "bool"
        }
      ],
      "stateMutability": "view",
      "type": "function"
    },
    {
      "inputs": [
        {
          "internalType": "address",
          "name": "",
          "type": "address"
        }
      ],
      "name": "identities",
      "outputs": [
        {
          "internalType": "bool",
          "name": "isVerified",
          "type": "bool"
        },
        {
          "internalType": "uint256",
          "name": "validUntil",
          "type": "uint256"
        },
        {
          "internalType": "bytes32",
          "name": "verificationHash",
          "type": "bytes32"
        },
        {
          "internalType": "enum ChainRegistry.IdentityStatus",
          "name": "status",
          "type": "uint8"
        }
      ],
      "stateMutability": "view",
      "type": "function"
    },
    {
      "inputs": [],
      "name": "pause",
      "outputs": [],
      "stateMutability": "nonpayable",
      "type": "function"
    },
    {
      "inputs": [],
      "name": "paused",
      "outputs": [
        {
          "internalType": "bool",
          "name": "",
          "type": "bool"
        }
      ],
      "stateMutability": "view",
      "type": "function"
    },
    {
      "inputs": [
        {
          "internalType": "bytes32",
          "name": "role",
          "type": "bytes32"
        },
        {
          "internalType": "address",
          "name": "account",
          "type": "address"
        }
      ],
      "name": "renounceRole",
      "outputs": [],
      "stateMutability": "nonpayable",
      "type": "function"
    },
    {
      "inputs": [
        {
          "internalType": "bytes32",
          "name": "role",
          "type": "bytes32"
        },
        {
          "internalType": "address",
          "name": "account",
          "type": "address"
        }
      ],
      "name": "revokeRole",
      "outputs": [],
      "stateMutability": "nonpayable",
      "type": "function"
    },
    {
      "inputs": [
        {
          "internalType": "bytes4",
          "name": "interfaceId",
          "type": "bytes4"
        }
      ],
      "name": "supportsInterface",
      "outputs": [
        {
          "internalType": "bool",
          "name": "",
          "type": "bool"
        }
      ],
      "stateMutability": "view",
      "type": "function"
    },
    {
      "inputs": [
        {
          "internalType": "address",
          "name": "",
          "type": "address"
        }
      ],
      "name": "syncData",
      "outputs": [
        {
          "internalType": "uint256",
          "name": "lastSyncTimestamp",
          "type": "uint256"
        },
        {
          "internalType": "bytes32",
          "name": "syncHash",
          "type": "bytes32"
        },
        {
          "internalType": "string",
          "name": "syncUri",
          "type": "string"
        }
      ],
      "stateMutability": "view",
      "type": "function"
    },
    {
      "inputs": [
        {
          "internalType": "address",
          "name": "user",
          "type": "address"
        },
        {
          "internalType": "bytes32",
          "name": "newSyncHash",
          "type": "bytes32"
        },
        {
          "internalType": "string",
          "name": "syncUri",
          "type": "string"
        }
      ],
      "name": "syncIdentity",
      "outputs": [],
      "stateMutability": "nonpayable",
      "type": "function"
    },
    {
      "inputs": [],
      "name": "unpause",
      "outputs": [],
      "stateMutability": "nonpayable",
      "type": "function"
    },
    {
      "inputs": [
        {
          "internalType": "address",
          "name": "user",
          "type": "address"
        },
        {
          "internalType": "enum ChainRegistry.IdentityStatus",
          "name": "newStatus",
          "type": "uint8"
        }
      ],
      "name": "updateIdentityStatus",
      "outputs": [],
      "stateMutability": "nonpayable",
      "type": "function"
    },
    {
      "inputs": [
        {
          "internalType": "bytes32",
          "name": "",
          "type": "bytes32"
        }
      ],
      "name": "usedSignatures",
      "outputs": [
        {
          "internalType": "bool",
          "name": "",
          "type": "bool"
        }
      ],
      "stateMutability": "view",
      "type": "function"
    },
    {
      "inputs": [
        {
          "internalType": "address",
          "name": "user",
          "type": "address"
        },
        {
          "internalType": "bytes32",
          "name": "verificationHash",
          "type": "bytes32"
        },
        {
          "internalType": "uint256",
          "name": "validityPeriod",
          "type": "uint256"
        },
        {
          "internalType": "bytes",
          "name": "signature",
          "type": "bytes"
        }
      ],
      "name": "verifyIdentity",
      "outputs": [],
      "stateMutability": "nonpayable",
      "type": "function"
    }
  ],
  "bytecode": "0x608060405234801561001057600080fd5b506001805460ff19169055610026600033610055565b6100507f0ce23c3e399818cfee81a7ab0880f714e53d7672b08df0fa62f2843416e1ea0933610055565b610101565b61005f8282610063565b5050565b6000828152602081815260408083206001600160a01b038516845290915290205460ff1661005f576000828152602081815260408083206001600160a01b03851684529091529020805460ff191660011790556100bd3390565b6001600160a01b0316816001600160a01b0316837f2f8788117e7eff1d82e926ec794901d17c78024a50270940304540a733656f0d60405160405180910390a45050565b611777806101106000396000f3fe608060405234801561001057600080fd5b50600436106101015760003560e01c806375b238fc1161009d57806375b238fc146101f25780638456cb591461020757806391d148541461020f57806395947a0f14610222578063a217fddf14610235578063afec9bf71461023d578063d547741f14610250578063e7705db614610263578063f653b81e14610278578063f978fd61146102c457600080fd5b806301ffc9a7146101065780631703540a1461012e578063248a9ca31461015057806327b4c627146101815780632f2ff15d146101a457806336568abe146101b95780633f4ba83a146101cc578063567651a4146101d45780635c975abb146101e7575b600080fd5b610119610114366004611169565b6102e7565b60405190151581526020015b60405180910390f35b61014161013c3660046111af565b61031e565b6040516101259392919061121a565b61017361015e366004611242565b60009081526020819052604090206001015490565b604051908152602001610125565b61019461018f3660046111af565b6103c9565b6040516101259493929190611293565b6101b76101b23660046112bb565b61055a565b005b6101b76101c73660046112bb565b610584565b6101b7610607565b6101b76101e23660046112e7565b61062a565b60015460ff16610119565b61017360008051602061170283398151915281565b6101b7610782565b61011961021d3660046112bb565b6107a2565b6101b7610230366004611385565b6107cb565b610173600081565b6101b761024b36600461145f565b610a1e565b6101b761025e3660046112bb565b610abe565b61017360008051602061172283398151915281565b6102b46102863660046111af565b6002602081905260009182526040909120805460018201549282015460039092015460ff9182169392911684565b604051610125949392919061149a565b6101196102d2366004611242565b60046020526000908152604090205460ff1681565b60006001600160e01b03198216637965db0b60e01b148061031857506301ffc9a760e01b6001600160e01b03198316145b92915050565b60036020526000908152604090208054600182015460028301805492939192610346906114be565b80601f0160208091040260200160405190810160405280929190818152602001828054610372906114be565b80156103bf5780601f10610394576101008083540402835291602001916103bf565b820191906000526020600020905b8154815290600101906020018083116103a257829003601f168201915b5050505050905083565b6001600160a01b03811660009081526002602081815260408084208151608081018352815460ff9081161515825260018301549482019490945281850154928101929092526003810154859485948594859490939092606085019291909116908111156104385761043861125b565b60028111156104495761044961125b565b815250509050600060036000886001600160a01b03166001600160a01b0316815260200190815260200160002060405180606001604052908160008201548152602001600182015481526020016002820180546104a5906114be565b80601f01602080910402602001604051908101604052809291908181526020018280546104d1906114be565b801561051e5780601f106104f35761010080835404028352916020019161051e565b820191906000526020600020905b81548152906001019060200180831161050157829003601f168201915b50505050508152505090508160000151801561053e575081602001514211155b6060830151602090930151915190989297509095509350915050565b60008281526020819052604090206001015461057581610ae3565b61057f8383610aed565b505050565b6001600160a01b03811633146105f95760405162461bcd60e51b815260206004820152602f60248201527f416363657373436f6e74726f6c3a2063616e206f6e6c792072656e6f756e636560448201526e103937b632b9903337b91039b2b63360891b60648201526084015b60405180910390fd5b6106038282610b71565b5050565b60008051602061170283398151915261061f81610ae3565b610627610bd6565b50565b610632610c28565b60008051602061170283398151915261064a81610ae3565b6001600160a01b03851660009081526002602052604090205460ff166106aa5760405162461bcd60e51b81526020600482015260156024820152741259195b9d1a5d1e481b9bdd081d995c9a599a5959605a1b60448201526064016105f0565b604051806060016040528042815260200185815260200184848080601f01602080910402602001604051908101604052809392919081815260200183838082843760009201829052509390945250506001600160a01b038816815260036020908152604091829020845181559084015160018201559083015190915060028201906107359082611546565b5050604080518681524260208201526001600160a01b03881692507f394db5e71238e7834e3181f33392b793173e2e8015d3b0b360239e4956774b1a910160405180910390a25050505050565b60008051602061170283398151915261079a81610ae3565b610627610c70565b6000918252602082815260408084206001600160a01b0393909316845291905290205460ff1690565b6107d3610c28565b6000805160206117228339815191526107eb81610ae3565b815160208084019190912060009081526004909152604090205460ff161561084e5760405162461bcd60e51b815260206004820152601660248201527514da59db985d1d5c9948185b1c9958591e481d5cd95960521b60448201526064016105f0565b604080516001600160a01b038716602080830191909152818301879052606080830187905283518084039091018152608090920190925280519101207f19457468657265756d205369676e6564204d6573736167653a0a3332000000006000908152601c869052603c8120906108c48386610cab565b90507f04d37b42c5714a0774e3ebdaa0a6971226b18bc7606050ae5e72ec4c1790f6bb81610900600080516020611722833981519152846107a2565b604080516001600160a01b03909316835290151560208301520160405180910390a16040805160808101909152600181526020810161093f884261161a565b815260208082018a9052600160409283018190526001600160a01b038c1660009081526002808452908490208551815490151560ff199182161782559386015181840155938501518482015560608501516003850180549194909391169184908111156109ae576109ae61125b565b0217905550508551602080880191909120600090815260048252604090819020805460ff19166001179055518981526001600160a01b038b1692507fb995343050bbaac74530262032b1b2520405a1ae1ce825b4b56917c29960ca01910160405180910390a25050505050505050565b600080516020611702833981519152610a3681610ae3565b6001600160a01b03831660009081526002602081905260409091206003018054849260ff19909116906001908490811115610a7357610a7361125b565b0217905550826001600160a01b03167fffa70d926532c6cb115799e5a3a998ae48458ee12d33bef93b32f428b237332b83604051610ab1919061162d565b60405180910390a2505050565b600082815260208190526040902060010154610ad981610ae3565b61057f8383610b71565b6106278133610ccf565b610af782826107a2565b610603576000828152602081815260408083206001600160a01b03851684529091529020805460ff19166001179055610b2d3390565b6001600160a01b0316816001600160a01b0316837f2f8788117e7eff1d82e926ec794901d17c78024a50270940304540a733656f0d60405160405180910390a45050565b610b7b82826107a2565b15610603576000828152602081815260408083206001600160a01b0385168085529252808320805460ff1916905551339285917ff6391f5c32d9c69d2a47ea670b442974b53935d1edc7fd64eb21e047a839171b9190a45050565b610bde610d28565b6001805460ff191690557f5db9ee0a495bf2e6ff9c91a7834c1ba4fdd244a5e8aa4e537bd38aeae4b073aa335b6040516001600160a01b03909116815260200160405180910390a1565b60015460ff1615610c6e5760405162461bcd60e51b815260206004820152601060248201526f14185d5cd8589b194e881c185d5cd95960821b60448201526064016105f0565b565b610c78610c28565b6001805460ff1916811790557f62e78cea01bee320cd4e420270b5ea74000d11b0c9f74754ebdbfc544b05a25833610c0b565b6000806000610cba8585610d71565b91509150610cc781610db6565b509392505050565b610cd982826107a2565b61060357610ce681610efb565b610cf1836020610f0d565b604051602001610d0292919061163b565b60408051601f198184030181529082905262461bcd60e51b82526105f0916004016116aa565b60015460ff16610c6e5760405162461bcd60e51b815260206004820152601460248201527314185d5cd8589b194e881b9bdd081c185d5cd95960621b60448201526064016105f0565b6000808251604103610da75760208301516040840151606085015160001a610d9b878285856110af565b94509450505050610daf565b506000905060025b9250929050565b6000816004811115610dca57610dca61125b565b03610dd25750565b6001816004811115610de657610de661125b565b03610e2e5760405162461bcd60e51b815260206004820152601860248201527745434453413a20696e76616c6964207369676e617475726560401b60448201526064016105f0565b6002816004811115610e4257610e4261125b565b03610e8f5760405162461bcd60e51b815260206004820152601f60248201527f45434453413a20696e76616c6964207369676e6174757265206c656e6774680060448201526064016105f0565b6003816004811115610ea357610ea361125b565b036106275760405162461bcd60e51b815260206004820152602260248201527f45434453413a20696e76616c6964207369676e6174757265202773272076616c604482015261756560f01b60648201526084016105f0565b60606103186001600160a01b03831660145b60606000610f1c8360026116bd565b610f2790600261161a565b6001600160401b03811115610f3e57610f3e61136f565b6040519080825280601f01601f191660200182016040528015610f68576020820181803683370190505b509050600360fc1b81600081518110610f8357610f836116d4565b60200101906001600160f81b031916908160001a905350600f60fb1b81600181518110610fb257610fb26116d4565b60200101906001600160f81b031916908160001a9053506000610fd68460026116bd565b610fe190600161161a565b90505b6001811115611059576f181899199a1a9b1b9c1cb0b131b232b360811b85600f1660108110611015576110156116d4565b1a60f81b82828151811061102b5761102b6116d4565b60200101906001600160f81b031916908160001a90535060049490941c93611052816116ea565b9050610fe4565b5083156110a85760405162461bcd60e51b815260206004820181905260248201527f537472696e67733a20686578206c656e67746820696e73756666696369656e7460448201526064016105f0565b9392505050565b6000806fa2a8918ca85bafe22016d0b997e4df60600160ff1b038311156110dc5750600090506003611160565b6040805160008082526020820180845289905260ff881692820192909252606081018690526080810185905260019060a0016020604051602081039080840390855afa158015611130573d6000803e3d6000fd5b5050604051601f1901519150506001600160a01b03811661115957600060019250925050611160565b9150600090505b94509492505050565b60006020828403121561117b57600080fd5b81356001600160e01b0319811681146110a857600080fd5b80356001600160a01b03811681146111aa57600080fd5b919050565b6000602082840312156111c157600080fd5b6110a882611193565b60005b838110156111e55781810151838201526020016111cd565b50506000910152565b600081518084526112068160208601602086016111ca565b601f01601f19169290920160200192915050565b83815282602082015260606040820152600061123960608301846111ee565b95945050505050565b60006020828403121561125457600080fd5b5035919050565b634e487b7160e01b600052602160045260246000fd5b6003811061128f57634e487b7160e01b600052602160045260246000fd5b9052565b8415158152608081016112a96020830186611271565b60408201939093526060015292915050565b600080604083850312156112ce57600080fd5b823591506112de60208401611193565b90509250929050565b600080600080606085870312156112fd57600080fd5b61130685611193565b93506020850135925060408501356001600160401b0381111561132857600080fd5b8501601f8101871361133957600080fd5b80356001600160401b0381111561134f57600080fd5b87602082840101111561136157600080fd5b949793965060200194505050565b634e487b7160e01b600052604160045260246000fd5b6000806000806080858703121561139b57600080fd5b6113a485611193565b9350602085013592506040850135915060608501356001600160401b038111156113cd57600080fd5b8501601f810187136113de57600080fd5b80356001600160401b038111156113f7576113f761136f565b604051601f8201601f19908116603f011681016001600160401b03811182821017156114255761142561136f565b60405281815282820160200189101561143d57600080fd5b8160208401602083013760006020838301015280935050505092959194509250565b6000806040838503121561147257600080fd5b61147b83611193565b915060208301356003811061148f57600080fd5b809150509250929050565b84151581526020810184905260408101839052608081016112396060830184611271565b600181811c908216806114d257607f821691505b6020821081036114f257634e487b7160e01b600052602260045260246000fd5b50919050565b601f82111561057f57806000526020600020601f840160051c8101602085101561151f5750805b601f840160051c820191505b8181101561153f576000815560010161152b565b5050505050565b81516001600160401b0381111561155f5761155f61136f565b6115738161156d84546114be565b846114f8565b6020601f8211600181146115a7576000831561158f5750848201515b600019600385901b1c1916600184901b17845561153f565b600084815260208120601f198516915b828110156115d757878501518255602094850194600190920191016115b7565b50848210156115f55786840151600019600387901b60f8161c191681555b50505050600190811b01905550565b634e487b7160e01b600052601160045260246000fd5b8082018082111561031857610318611604565b602081016103188284611271565b76020b1b1b2b9b9a1b7b73a3937b61d1030b1b1b7bab73a1604d1b81526000835161166d8160178501602088016111ca565b7001034b99036b4b9b9b4b733903937b6329607d1b601791840191820152835161169e8160288401602088016111ca565b01602801949350505050565b6020815260006110a860208301846111ee565b808202811582820484141761031857610318611604565b634e487b7160e01b600052603260045260246000fd5b6000816116f9576116f9611604565b50600019019056fea49807205ce4d355092ef5a8a18f56e8913cf4a201fbe287825b095693c217750ce23c3e399818cfee81a7ab0880f714e53d7672b08df0fa62f2843416e1ea09a26469706673582212209e15539e58c9c992ac1864c434354c649189b944c8fd6e6b1348ccf9ddb3953864736f6c634300081c0033",
  "linkReferences": {},
  "deployedLinkReferences": {}
}